:020000040800F2
:1000000000040020450100084D0100084F010008D0
:1000100051010008530100085501000800000000CC
:100020000000000000000000000000005701000870
:1000300059010008000000005B0100085D01000894
:100040005F0100085F0100085F0100085F01000810
:100050005F0100085F0100085F0100085F01000800
:100060005F0100085F0100085F0100085F010008F0
:100070005F0100085F0100085F0100085F010008E0
:100080005F0100085F0100085F0100085F010008D0
:100090005F0100085F0100085F0100085F010008C0
:1000A0005F0100085F0100085F0100085F010008B0
:1000B0005F0100085F0100085F0100085F010008A0
:1000C0005F0100085F0100085F0100085F01000890
:1000D0005F0100085F0100085F0100085F01000880
:1000E0005F0100085F0100085F0100085F01000870
:1000F0005F0100085F0100085F0100085F01000860
:100100005F0100085F0100085F0100085F0100084F
:100110005F0100085F0100085F0100085F0100083F
:100120005F0100085F0100085F0100085F0100082F
:10013000DFF80CD000F018F8004800475102000822
:10014000000400200648804706480047FEE7FEE717
:10015000FEE7FEE7FEE7FEE7FEE7FEE7FEE7FEE777
:100160004D02000831010008064C074D06E0E0682A
:1001700040F0010394E8070098471034AC42F6D3EE
:10018000FFF7DAFFAC020008BC0200082DE9F041DD
:10019000CA7802F00F0CD30644BF8B784CEA030CEC
:1001A00009880B0621D0056800234FF001084FF0A5
:1001B0000F0E002608E000BF282A08BF476101365D
:1001C000082E03F104030FD008FA06F70F42F6D009
:1001D0000EFA03F425EA04040CFA03F5482A45EA6A
:1001E0000405E9D10761EAE70560B1F5807F38BF12
:1001F000BDE8F081446800234FF4807E4FF00F0883
:10020000002607E0282A08BF47610136082E03F1BF
:10021000040310D00EFA06F707EA0105BD42F4D137
:1002200008FA03F5AC430CFA03F5482A44EA05043E
:10023000E8D10761E9E74460BDE8F0814269114314
:1002400041617047026911430161704770470000C6
:1002500082B041F21800C4F20200016840F6004486
:1002600041F0080101600120C4F20104C1F2030061
:10027000019001A92046FFF789FF00BF2046012118
:10028000FFF7E0FF20460121FFF7D8FFF6E702E085
:1002900008C8121F08C1002AFAD170477047002011
:1002A00001E001C1121F002AFBD17047BC02000807
:0C02B00000000020000400009E02000876
:0400000508000145A9
:00000001FF
